:100000000C9434000C9451000C9451000C94510049
:100010000C9451000C9451000C9451000C9451001C
:100020000C9451000C9451000C9451000C9451000C
:100030000C9451000C9451000C9451000C945100FC
:100040000C9451000C9451000C9451000C945100EC
:100050000C9451000C9451000C9451000C945100DC
:100060000C9451000C94510011241FBECFEFD8E026
:10007000DEBFCDBF13E0A0E0B1E0E6E9FFE002C0E3
:1000800005900D92A432B107D9F723E0A4E2B3E0C2
:1000900001C01D92A432B207E1F70E94F5060C944C
:1000A000C9070C9400000F931F93CF93DF93D82FB1
:1000B000C62F142F052F61E08AE20E945C0760E0E2
:1000C00080E00E945C0760E08D2F0E945C0760E08A
:1000D00080E00E945C0760E08D2F0E945C0761E079
:1000E0008BE20E945C0760E080E00E945C0760E0B9
:1000F0008C2F0E945C0760E080E00E945C0760E05B
:100100008C2F0E945C0761E08CE20E945C0760E03B
:10011000802F0E945C0760E0812F0E945C07DF91C6
:10012000CF911F910F9108952F923F924F925F921E
:100130006F927F928F929F92AF92BF92CF92DF92F7
:10014000EF92FF920F931F93CF93DF9300D000D0D5
:10015000CDB7DEB79C838B837B016A011A83098349
:10016000C901861B970B8C0122F400271127081B5D
:10017000190BC6014B815C81841B950B5C0122F439
:10018000AA24BB24A81AB90AA016B1065CF49C2DB7
:100190008D2D6901292F382F9B818C81FC82EB8268
:1001A000E92EF82E8B819C81C816D906DCF59E2D90
:1001B0008F2D7901292F382F9B818C81DC82CB8276
:1001C000C92ED82E2FC04B815C81C416D5060CF4E5
:1001D00044C044244A94542C03C044244394512CD6
:1001E000A016B10644F449815A816B817C81C70114
:1001F0000E94530007C049815A81B7018B819C81BD
:100200000E9453008618970822F4E40CF51C820C17
:10021000931C8B819C8101969C838B83C816D90685
:10022000FCF61BC016014B815C81241A350AC901FA
:100230008E199F093C0122F466247724681A790AF2
:10024000410133201CF45FEF851A950A9594879439
:10025000E216F3060CF4C1CFB6CF0F900F900F90BB
:100260000F90DF91CF911F910F91FF90EF90DF9052
:10027000CF90BF90AF909F908F907F906F905F9046
:100280004F903F902F9008950F931F93460F571F45
:100290004150510989019A01AC010E9494001F91BB
:1002A0000F910895AF92BF92CF92DF92EF92FF929B
:1002B0000F931F93CF93DF93EC015B0169017C01E6
:1002C000E40EF51E8E159F0554F49801A601B501A4
:1002D000CE010E9444012196CE15DF05B4F3DF91D3
:1002E000CF911F910F91FF90EF90DF90CF90BF9033
:1002F000AF9008950F931F938C0120E830E040EAFF
:1003000050E060E070E080E090E00E9452011F91B8
:100310000F9108952F923F924F925F926F927F922A
:100320008F929F92AF92BF92CF92DF92EF92FF9205
:100330000F931F93CF93DF93CDB7DEB72A970FB6F6
:10034000F894DEBF0FBECDBF5C014B016A011801FE
:10035000FC82EB8281E090E0841B950B9A83898379
:1003600066247724641A750A660C771C1416150621
:100370000CF07BC02B0191E0491A510801E010E01C
:10038000322F31703D83C101019698878F8322708F
:100390002E8329813A813A87298789859A859923ED
:1003A00064F091E0C91AD10822E0620E711C8985BF
:1003B0009A85860D971D9A8789871A830983780104
:1003C000EE0CFF1CC701019629853A85280F391FBD
:1003D0003A8729873D813323E9F0A601440F551F51
:1003E0004F5F5F4F420D531D2B813C81B4016C194F
:1003F0007D09C501800F911F0E9444012B813C8122
:100400004F8158854E0D5F1DB201C6018A0D9B1D9F
:100410000E9444018E818823E9F0A601440F551FF4
:100420004F5F5F4F420D531D2B813C81B4016C190E
:100430007D09C501801B910B0E9444014F815885A5
:100440004E0D5F1D2B813C81B201C5018C199D09A8
:100450000E9444010F5F1F4F91E0491A5108298102
:100460003A812C153D050CF498CF2A960FB6F894D6
:10047000DEBF0FBECDBFDF91CF911F910F91FF90D7
:10048000EF90DF90CF90BF90AF909F908F907F9034
:100490006F905F904F903F902F900895AF92BF92D2
:1004A000CF92DF92EF92FF920F931F93CF93DF9340
:1004B0006C015B01EA017901440F551F4F5F5F4FEB
:1004C0006C1B7D0B0E94440100E010E023E0AE01B4
:1004D000B501C6010E948A01DF91CF911F910F9152
:1004E000FF90EF90DF90CF90BF90AF9008952F9244
:1004F0003F924F925F926F927F928F929F92AF92B4
:10050000BF92CF92DF92EF92FF920F931F93CF9300
:10051000DF93CDB7DEB761970FB6F894DEBF0FBE9D
:10052000CDBF7F836E835D874C8729013801803A78
:1005300091050CF0ACC0603871050CF0A8C0E11456
:10054000F10419F4EE24E394F12C2C853D8520521E
:1005500031092F35310520F02FE330E03D872C871E
:100560002C853D85220F331F220F331F4C855D855F
:10057000240F351F1C01F901ED59F040F987E88778
:10058000A901425C5E4F5B874A87FC013596FF8775
:10059000EE879B838A838E809F80F7E08F0E911C6D
:1005A0002C853D852335310540F4EA85FB85F081B6
:1005B0002F2F30E0398B288B60C0E885F985F081DA
:1005C0002F2F30E0398B288B58C0488940FF14C04A
:1005D00051E0E516F10439F4A201B6018C819D8148
:1005E0000E9453001FC082019701A701B501832D0E
:1005F00099810E94520116C04614570499F081E077
:10060000E816F10439F4A301B6018C819D810E94A2
:10061000530008C083019701A701B501832D99817B
:100620000E945201E889F989F695E795F98BE88BE4
:10063000AE0CBF1CFFEFCF1ADF0AC814D90429F68D
:100640002C803D802A813B812E0D3F1D3B832A83D8
:100650003FEF231A330A488559854F5F5F4F59870B
:1006600048878A859B8501969B878A87EE85FF85CB
:100670002E163F0609F094CF0AC01A81FB81F98338
:10068000CE80DF8056013D822C82312E9ECF619636
:100690000FB6F894DEBF0FBECDBFDF91CF911F9193
:1006A0000F91FF90EF90DF90CF90BF90AF909F9011
:1006B0008F907F906F905F904F903F902F90089514
:1006C0002F923F924F925F926F927F928F929F9262
:1006D000AF92BF92CF92DF92EF92FF920F931F9350
:1006E000CF93DF93CDB7DEB72A970FB6F894DEBF6E
:1006F0000FBECDBF9A8789876B013A8329831C83FC
:100700000B834701FA0101900020E9F731975F015F
:10071000A41AB50A1A141B040CF071C01701220C9C
:10072000331C220C331C2E0C3F1CC701880F991F51
:10073000880F991F880F991F8E199F099C012D5FA3
:100740003F4F3E832D83FC013896F887EF832701C6
:10075000440C551C4E0C5F1C440C551C3A01A40E55
:10076000B51E8091000190910101892B21F18985AD
:100770009A85820D931D813A9105E8F08D819E81C5
:10078000C80ED91E91E8C916D10474F007E71FEE10
:1007900020E830E04BE950E065E070E085E090E073
:1007A0000E945201CF80D884F30180818032E9F029
:1007B000F5E0F9871A86F301408150E074010B815E
:1007C0001C8129813A81B60189859A850E94770228
:1007D00029853A85240D351D3A872987213A310527
:1007E0003CF030EA39871A8603C085E089871A868B
:1007F0009FEF691A790A6A147B0409F0B2CF2A962E
:100800000FB6F894DEBF0FBECDBFDF91CF911F9121
:100810000F91FF90EF90DF90CF90BF90AF909F909F
:100820008F907F906F905F904F903F902F900895A2
:10083000549A5C9A2FEF89E698E1215080409040CD
:10084000E1F700C000005C982FEF89E698E12150A5
:1008500080409040E1F700C000005C9A2FEF89E6ED
:1008600098E1215080409040E1F700C0000061E035
:1008700081E00E945C072FEF82E597E021508040E5
:100880009040E1F700C0000061E081E10E945C0758
:100890002FEF89E698E1215080409040E1F700C0B9
:1008A000000061E081EB0E945C0760E081E00E9453
:1008B0005C0760E08CE20E945C0760E08DE20E94D1
:1008C0005C0761E082EB0E945C0760E081E00E94CF
:1008D0005C0760E08CE20E945C0760E08DE20E94B1
:1008E0005C0761E083EB0E945C0760E081E00E94AE
:1008F0005C0760E08CE20E945C0760E08DE20E9491
:100900005C0760E081E00E945C0760E08CE20E948E
:100910005C0760E08DE20E945C0761E084EB0E946E
:100920005C0760E087E00E945C0761E080EC0E9469
:100930005C0760E082EA0E945C0760E082E00E945F
:100940005C0760E084E80E945C0761E081EC0E9443
:100950005C0760E085EC0E945C0761E082EC0E942D
:100960005C0760E08AE00E945C0760E080E00E9433
:100970005C0761E083EC0E945C0760E08AE80E940B
:100980005C0760E08AE20E945C0761E084EC0E9400
:100990005C0760E08AE80E945C0760E08EEE0E94DF
:1009A0005C0761E085EC0E945C0760E08EE00E94DD
:1009B0005C0761E080E20E945C0761E086E30E94E0
:1009C0005C0760E088EC0E945C0761E08AE30E94BB
:1009D0005C0760E085E00E945C0761E08AE20E94BB
:1009E0005C0760E080E00E945C0760E080E00E94BD
:1009F0005C0760E080E00E945C0760E08FE70E9497
:100A00005C0761E08BE20E945C0760E080E00E948E
:100A10005C0760E080E00E945C0760E080E00E948C
:100A20005C0760E08FE90E945C0761E080EE0E9455
:100A30005C0760E082E00E945C0760E08CE10E945D
:100A40005C0760E087E00E945C0760E082E10E9452
:100A50005C0760E087E30E945C0760E082E30E943D
:100A60005C0760E089E20E945C0760E08DE20E9422
:100A70005C0760E089E20E945C0760E085E20E941A
:100A80005C0760E08BE20E945C0760E089E30E9403
:100A90005C0760E080E00E945C0760E081E00E940B
:100AA0005C0760E083E00E945C0760E080E10E94F8
:100AB0005C0761E081EE0E945C0760E083E00E94D9
:100AC0005C0760E08DE10E945C0760E087E00E94C7
:100AD0005C0760E086E00E945C0760E08EE20E94B6
:100AE0005C0760E08CE20E945C0760E089E20E94A3
:100AF0005C0760E08DE20E945C0760E08EE20E948D
:100B00005C0760E08EE20E945C0760E087E30E9481
:100B10005C0760E08FE30E945C0760E080E00E9479
:100B20005C0760E080E00E945C0760E082E00E9479
:100B30005C0760E080E10E945C0761E083E10E9465
:100B40005C078FE39CE90197F1F700C0000061E0CA
:100B500089E20E945C079FEF21EE84E091502040E3
:100B60008040E1F700C0000061E086E30E945C077E
:100B700060E080EC0E945C0761E086E30E945C0715
:100B800060E080E60E945C07089584E98093BC00E1
:100B90000895ECEBF0E080818823ECF7089584EA77
:100BA0008093BC000E94C90508958093BB0084E82F
:100BB0008093BC000E94C9050895882321F084EC2D
:100BC0008093BC0003C084E88093BC000E94C905E8
:100BD00008958091BB0008950F931F93CF93DF93E7
:100BE0000E94CF050E94C90580E990E00E94D505CA
:100BF0000E94C90580E090E00E94D5050E94C905C9
:100C00000E94CF050E94C90581E990E00E94D505A8
:100C10000E94C90581E090E00E94DD050E94C9059F
:100C20000E94E905082F0E94C90580E090E00E941B
:100C3000DD050E94C9050E94E905182F0E94C9051B
:100C40000E94C5051092BC00D02F80E0C82F9E01E5
:100C5000212B3595279535952795359527953595EC
:100C6000279533FD386FC90199230CF40F9695959C
:100C70008795959587959595879595958795DF9116
:100C8000CF911F910F9108958CE08093B800E9EB0C
:100C9000F0E080818C7F80838FEF8093BB0084E0C5
:100CA0008093BC00789408950F931F932CE73EE740
:100CB00049E150E06AE570E088E290E00E944E026F
:100CC00020E038EF42E150E06AE570E088E290E031
:100CD0000E944E022CE73EE749E050E061E170E0FF
:100CE00087E290E00E944E020CE71EE724E330E02A
:100CF00044E150E064E170E08EE190E00E94520136
:100D000000E018EF24E330E04AE050E064E170E0F6
:100D100083E290E00E94520100E010E02EE130E01A
:100D200046E250E06EE170E083E290E00E949400C1
:100D30002EE130E046E250E06EE170E084E290E0C7
:100D40000E94940023E230E046E250E063E270E06B
:100D500083E290E00E94940024E230E046E250E01A
:100D600064E270E083E290E00E94940028E230E0C8
:100D700046E250E068E270E083E290E00E94940076
:100D80002CE230E046E250E06CE270E083E290E07A
:100D90000E9494002DE230E046E250E06DE270E007
:100DA00083E290E00E94940022E330E046E250E0CB
:100DB00062E370E083E290E00E94940026E330E07A
:100DC00046E250E066E370E083E290E00E94940027
:100DD00027E330E046E250E067E370E083E290E032
:100DE0000E9494001F910F910895CF93DF93CDB788
:100DF000DEB72A970FB6F894DEBF0FBECDBF80E1F5
:100E000090E00E946A070E944E070E9418040E9408
:100E100044068CEE92E00E9485078FEF9FEF0E94C0
:100E20007A012FEF81EE94E0215080409040E1F76D
:100E300000C000000E9454060E94EC058C018FEF58
:100E400092E00E9485074AE0BE016F5F7F4FC801B4
:100E50000E949407CE0101960E9485070F2EF5E0AF
:100E6000EF2EF12CF02D0FEF1FEF2FE130E0AE0150
:100E70004F5F5F4F62E370E080E590E00E946003A7
:100E8000EE24E394F12C2FE130E04DE053E06AE5ED
:100E900070E080E590E00E946003CECF84B18F6265
:100EA00084B9249881E58CBD2A9A299808958EBD2D
:100EB0000DB407FEFDCF08952A98299A662321F0E4
:100EC00028980E94570703C0289A0E9457072A9A19
:100ED000299808959093C5008093C40088E1809379
:100EE000C100E2ECF0E08081866080838081877FB2
:100EF000808380818F7E80830895E0ECF0E0908194
:100F000095FFFDCF8093C6000895CF93DF93EC014A
:100F10008881882331F021960E947D078991811173
:100F2000FBCFDF91CF910895BB274A3031F499234D
:100F300022F4BDE2909581959F4F0C94A007BB27AA
:100F4000FB015527AA27880F991FAA1FA41710F085
:100F5000A41B83955051B9F7A05DAA3308F0A95D91
:100F6000A193009779F7B111B1931192CB010C9431
:100F7000B907DC01FC01672F71917723E1F7329704
:100F800004C07C916D9370836291AE17BF07C8F364
:060F90000895F894FFCF64
:100F96000100264949493203017F01033F40404091
:100FA6003F1F2040201F3F4038403F631408146312
:100FB60003047804036159494D43007F41414102CE
:100FC60004081020004141417F0402010204404010
:100FD600404040000307080020545478407F2844CE
:100FE60044383844444428384444287F38545454B8
:100FF6001800087E090218A4A49C787F08040478C7
:1010060000447D40002040403D007F102844000001
:10101600417F40007C047804787C080404783844D6
:10102600444438FC1824241818242418FC7C08048A
:101036000408485454542404043F44243C404020AB
:101046007C1C2040201C3C4030403C442810284456
:101056004C9090907C4464544C4400083641000007
:101066000077000000413608000201020402000079
:1010760000000000005F00000007000700147F1456
:101086007F14242A7F2A12231308646236495620C5
:10109600500008070300001C2241000041221C00EA
:1010A6002A1C7F1C2A08083E0808008070300008A9
:1010B60008080808000060600020100804023E517D
:1010C60049453E00427F400072494949462141490F
:1010D6004D331814127F1027454545393C4A494976
:1010E6003141211109073649494936464949291EE0
:1010F60000001400000040340000000814224114CF
:1011060014141414004122140802015909063E4120
:101116005D594E7C1211127C7F494949363E414148
:1011260041227F4141413E7F494949417F090909A1
:10113600013E414151737F0808087F00417F41000D
:101146002040413F017F081422417F404040407FBC
:10115600021C027F7F0408107F3E4141413E7F0909
:101166000909063E4151215E7F0919294600000002
:1011760000000000000000000000000050617274D2
:10118600696F20656C2070726F6772616D610054C3
:10119600656D70657261747572653A200064656785
:1011A6002E2043656C736975730031300032300050
:0411B60033300000D2
:00000001FF
