:100000000C9434000C9451000C9451000C94510049
:100010000C9451000C9451000C9451000C9451001C
:100020000C9451000C9451000C9451000C9451000C
:100030000C9451000C9451000C9451000C945100FC
:100040000C9451000C9451000C9451000C945100EC
:100050000C9451000C9451000C9451000C945100DC
:100060000C9451000C94510011241FBECFEFD8E026
:10007000DEBFCDBF11E0A0E0B1E0E0E7F9E002C0F3
:1000800005900D92AA34B107D9F721E0AAE4B1E0B6
:1000900001C01D92AB34B207E1F70E94CE010C946F
:1000A000B6040C9400002FEF87EA91E621508040BF
:1000B0009040E1F700C0000010924A01089580913D
:1000C0004A010895CF92DF92EF92FF92CF93DF9390
:1000D00000D000D01F92CDB7DEB7682F792FFE0178
:1000E000319685E0DF011D928A95E9F710924A0169
:1000F00045983D9ABFEF29EF80E0B1502040804005
:10010000E1F700C00000459A3D982FE10AC09AE04F
:100110009A95F1F700C0215021F484E080934A01C0
:100120008FC03599F4CF80914A01882359F088C057
:10013000AAE0AA95F1F700C0215029F484E0809349
:100140004A010EC023E3359BF3CF0AC0BAE0BA954B
:10015000F1F700C0215029F484E080934A0170C077
:1001600023E33599F3CF80914A01882309F443C0F2
:1001700067C08AE08A95F1F700C0215031F45093AE
:100180004A0145E034C0422F24E2359BF2CF209152
:100190004A01211129C09AEB9A95F1F700C0359BCD
:1001A0001EC0E1E0F0E0EC0FFD1FE40FF11D208127
:1001B000D701C601032E04C0880F991FAA1FBB1FB9
:1001C0000A94D2F7822B80830AC0AAE0AA95F1F79D
:1001D00000C0215029F450934A01242F06C023E384
:1001E0003599F3CF242F01C0242F315062F64F5F91
:1001F000453038F008C040E0C12CD12C7601C394C2
:1002000054E037E0C1CF80914A01811119C0998132
:100210008A81980F8B81980F8C81890F9D81891716
:1002200021F083E080934A010BC0DE011196E62F96
:10023000F72FCE0105962D912193A817B907D9F76D
:100240000F900F900F900F900F90DF91CF91FF9034
:10025000EF90DF90CF9008958F929F92AF92BF92D0
:10026000CF92DF92EF92FF920F931F93CF93DF9382
:1002700000D000D0CDB7DEB78C017B0119821A8285
:100280001B821C82CE0101960E94620080914A016D
:10029000811173C06C818B81882384F48F7770E027
:1002A000782B072E000C880B990B0E946C0320E022
:1002B00030E040E251EC0E94C2020EC070E0782BA8
:1002C000072E000C880B990B0E946C0320E030E095
:1002D00040E251E40E94C202F8016083718382838C
:1002E0009383698170E0762F66278A81682B072EB9
:1002F000000C880B990B0E946C0320E030E040E278
:1003000051E40E94C2024B015C01F70160837183DA
:1003100082839383F801C080D180E280F38020E063
:1003200030E040E252ECC701B6010E94BD028823D2
:1003300054F020E030E040EA52E4C701B6010E94E8
:100340001C04181624F482E080934A0116C020E0B1
:1003500030E0A901C501B4010E94BD02882354F018
:1003600020E030E048EC52E4C501B4010E941C04D6
:1003700018161CF481E080934A010F900F900F90A3
:100380000F90DF91CF911F910F91FF90EF90DF9031
:10039000CF90BF90AF909F908F900895CF93DF93B1
:1003A000CDB7DEB728970FB6F894DEBF0FBECDBF2E
:1003B0000E94530080E190E00E9493020F2EF8EE1D
:1003C0002F2EF3E03F2EF02D0F2EF4E6AF2EB12CA2
:1003D000F02DBE016B5F7F4FCE0101960E942C0174
:1003E000C980DA80EB80FC804D805E806F807884ED
:1003F0000E945F00833009F47EC0843009F480C01D
:10040000811183C020E030E048EC52E4C701B6011E
:100410000E9421040E9434037B0120E030E048EC7C
:1004200052E4C301B2010E9421040E9434038B01F3
:1004300080E091E00E94AE02C701B1010E948E04EB
:100440004C0180E3860F0E94A602C401B5010E9400
:100450008E0480E3860F0E94A6028EE091E00E9447
:10046000AE02C701B5010E948E046AE070E00E94EE
:100470008E0480E3860F0E94A602C7016AE070E046
:100480000E948E04805D0E94A60280E191E00E949D
:10049000AE0285E191E00E94AE02C801B1010E9466
:1004A0008E047C0180E3860F0E94A602C701B5017D
:1004B0000E948E0480E3860F0E94A6028EE091E0E7
:1004C0000E94AE02C801B5010E948E046AE070E08D
:1004D0000E948E0480E3860F0E94A602C8016AE093
:1004E00070E00E948E04805D0E94A6028FE191E080
:1004F0000E94AE020EC083E291E00E94AE0209C0EB
:1005000083E391E00E94AE0204C081E491E00E9486
:10051000AE022FEF8BE792E9215080409040E1F747
:1005200000C0000056CF9093C5008093C40088E1BE
:100530008093C100E2ECF0E080818660808380815E
:10054000877F808380818F7E80830895E0ECF0E058
:10055000908195FFFDCF8093C6000895CF93DF93E0
:10056000EC018881882331F021960E94A6028991AE
:100570008111FBCFDF91CF9108950E94A70308F46A
:1005800081E008950E94D6020C94E2030E94DB03EE
:1005900058F00E94D40340F029F45F3F29F00C94F6
:1005A000CB0351110C9416040C94D1030E94F30355
:1005B00068F39923B1F3552391F3951B550BBB2792
:1005C000AA2762177307840738F09F5F5F4F220FD7
:1005D000331F441FAA1FA9F335D00E2E3AF0E0E8CE
:1005E00032D091505040E695001CCAF72BD0FE2F18
:1005F00029D0660F771F881FBB1F261737074807AC
:10060000AB07B0E809F0BB0B802DBF01FF27935863
:100610005F4F3AF09E3F510578F00C94CB030C9459
:1006200016045F3FE4F3983ED4F38695779567957B
:10063000B795F7959F5FC9F7880F911D9695879598
:1006400097F90895E1E0660F771F881FBB1F6217B7
:1006500073078407BA0720F0621B730B840BBA0B75
:10066000EE1F88F7E09508950E943B036894B1114E
:100670000C94160408950E94FB0388F09F5798F08D
:10068000B92F9927B751B0F0E1F0660F771F881F97
:10069000991F1AF0BA95C9F714C0B13091F00E94B1
:1006A0001504B1E008950C941504672F782F88275E
:1006B000B85F39F0B93FCCF3869577956795B395D8
:1006C000D9F73EF490958095709561957F4F8F4F47
:1006D0009F4F0895E89409C097FB3EF4909580954C
:1006E000709561957F4F8F4F9F4F9923A9F0F92FF8
:1006F00096E9BB279395F695879577956795B79576
:10070000F111F8CFFAF4BB0F11F460FF1BC06F5F5B
:100710007F4F8F4F9F4F16C0882311F096E911C06D
:10072000772321F09EE8872F762F05C0662371F08E
:1007300096E8862F70E060E02AF09A95660F771FA2
:10074000881FDAF7880F9695879597F90895990F7E
:100750000008550FAA0BE0E8FEEF16161706E8078B
:10076000F907C0F012161306E407F50798F0621BAC
:10077000730B840B950B39F40A2661F0232B242B81
:10078000252B21F408950A2609F4A140A6958FEFA0
:10079000811D811D089597F99F6780E870E060E0F2
:1007A00008959FEF80EC089500240A94161617060A
:1007B00018060906089500240A9412161306140652
:1007C00005060895092E0394000C11F4882352F0B5
:1007D000BB0F40F4BF2B11F460FF04C06F5F7F4F6D
:1007E0008F4F9F4F089557FD9058440F551F59F054
:1007F0005F3F71F04795880F97FB991F61F09F3F0E
:1008000079F087950895121613061406551FF2CF36
:100810004695F1DF08C0161617061806991FF1CF86
:1008200086957105610508940895E894BB276627AD
:100830007727CB0197F908950E94A70308F48FEF5B
:1008400008950E9434040C94E2030E94D40338F00B
:100850000E94DB0320F0952311F00C94CB030C9441
:10086000D10311240C9416040E94F30370F3959F96
:10087000C1F3950F50E0551F629FF001729FBB2797
:10088000F00DB11D639FAA27F00DB11DAA1F649F33
:100890006627B00DA11D661F829F2227B00DA11DE6
:1008A000621F739FB00DA11D621F839FA00D611D6C
:1008B000221F749F3327A00D611D231F849F600D8D
:1008C000211D822F762F6A2F11249F5750409AF0B6
:1008D000F1F088234AF0EE0FFF1FBB1F661F771F42
:1008E000881F91505040A9F79E3F510580F00C940D
:1008F000CB030C9416045F3FE4F3983ED4F3869543
:1009000077956795B795F795E7959F5FC1F7FE2BAC
:10091000880F911D9695879597F9089597FB072E57
:1009200016F4009407D077FD09D00E94A20407FCBA
:1009300005D03EF4909581959F4F089570956195EF
:100940007F4F0895AA1BBB1B51E107C0AA1FBB1F05
:10095000A617B70710F0A61BB70B881F991F5A954B
:10096000A9F780959095BC01CD010895F894FFCF2B
:1009700054656D70657261747572613A20002E0065
:10098000202020200048756D656461643A200025B0
:100990000D0A006572726F7220636865636B207365
:1009A000756D006572726F722074696D656F757414
:0A09B000006F747261636F736100E1
:00000001FF
